{
  "_format": "hh-sol-artifact-1",
  "contractName": "EOCHOToken",
  "sourceName": "contracts/EOCHOToken.sol",
  "abi": [
    {
      "inputs": [],
      "stateMutability": "nonpayable",
      "type": "constructor"
    },
    {
      "inputs": [],
      "name": "AddressAlreadySet",
      "type": "error"
    },
    {
      "inputs": [],
      "name": "AlreadyMinted",
      "type": "error"
    },
    {
      "inputs": [
        {
          "internalType": "address",
          "name": "spender",
          "type": "address"
        },
        {
          "internalType": "uint256",
          "name": "allowance",
          "type": "uint256"
        },
        {
          "internalType": "uint256",
          "name": "needed",
          "type": "uint256"
        }
      ],
      "name": "ERC20InsufficientAllowance",
      "type": "error"
    },
    {
      "inputs": [
        {
          "internalType": "address",
          "name": "sender",
          "type": "address"
        },
        {
          "internalType": "uint256",
          "name": "balance",
          "type": "uint256"
        },
        {
          "internalType": "uint256",
          "name": "needed",
          "type": "uint256"
        }
      ],
      "name": "ERC20InsufficientBalance",
      "type": "error"
    },
    {
      "inputs": [
        {
          "internalType": "address",
          "name": "approver",
          "type": "address"
        }
      ],
      "name": "ERC20InvalidApprover",
      "type": "error"
    },
    {
      "inputs": [
        {
          "internalType": "address",
          "name": "receiver",
          "type": "address"
        }
      ],
      "name": "ERC20InvalidReceiver",
      "type": "error"
    },
    {
      "inputs": [
        {
          "internalType": "address",
          "name": "sender",
          "type": "address"
        }
      ],
      "name": "ERC20InvalidSender",
      "type": "error"
    },
    {
      "inputs": [
        {
          "internalType": "address",
          "name": "spender",
          "type": "address"
        }
      ],
      "name": "ERC20InvalidSpender",
      "type": "error"
    },
    {
      "inputs": [],
      "name": "OnlyRegister",
      "type": "error"
    },
    {
      "inputs": [],
      "name": "OnlyTaskEscrow",
      "type": "error"
    },
    {
      "inputs": [
        {
          "internalType": "address",
          "name": "owner",
          "type": "address"
        }
      ],
      "name": "OwnableInvalidOwner",
      "type": "error"
    },
    {
      "inputs": [
        {
          "internalType": "address",
          "name": "account",
          "type": "address"
        }
      ],
      "name": "OwnableUnauthorizedAccount",
      "type": "error"
    },
    {
      "inputs": [],
      "name": "ZeroAddress",
      "type": "error"
    },
    {
      "anonymous": false,
      "inputs": [
        {
          "indexed": true,
          "internalType": "address",
          "name": "owner",
          "type": "address"
        },
        {
          "indexed": true,
          "internalType": "address",
          "name": "spender",
          "type": "address"
        },
        {
          "indexed": false,
          "internalType": "uint256",
          "name": "value",
          "type": "uint256"
        }
      ],
      "name": "Approval",
      "type": "event"
    },
    {
      "anonymous": false,
      "inputs": [
        {
          "indexed": false,
          "internalType": "uint256",
          "name": "amount",
          "type": "uint256"
        }
      ],
      "name": "Burned",
      "type": "event"
    },
    {
      "anonymous": false,
      "inputs": [
        {
          "indexed": true,
          "internalType": "address",
          "name": "attemptedBy",
          "type": "address"
        }
      ],
      "name": "CapReached",
      "type": "event"
    },
    {
      "anonymous": false,
      "inputs": [
        {
          "indexed": true,
          "internalType": "address",
          "name": "to",
          "type": "address"
        },
        {
          "indexed": false,
          "internalType": "uint256",
          "name": "amount",
          "type": "uint256"
        }
      ],
      "name": "InitialMinted",
      "type": "event"
    },
    {
      "anonymous": false,
      "inputs": [
        {
          "indexed": true,
          "internalType": "address",
          "name": "previousOwner",
          "type": "address"
        },
        {
          "indexed": true,
          "internalType": "address",
          "name": "newOwner",
          "type": "address"
        }
      ],
      "name": "OwnershipTransferred",
      "type": "event"
    },
    {
      "anonymous": false,
      "inputs": [
        {
          "indexed": true,
          "internalType": "address",
          "name": "from",
          "type": "address"
        },
        {
          "indexed": true,
          "internalType": "address",
          "name": "to",
          "type": "address"
        },
        {
          "indexed": false,
          "internalType": "uint256",
          "name": "value",
          "type": "uint256"
        }
      ],
      "name": "Transfer",
      "type": "event"
    },
    {
      "inputs": [],
      "name": "CAP",
      "outputs": [
        {
          "internalType": "uint256",
          "name": "",
          "type": "uint256"
        }
      ],
      "stateMutability": "view",
      "type": "function"
    },
    {
      "inputs": [],
      "name": "FEE_BPS",
      "outputs": [
        {
          "internalType": "uint256",
          "name": "",
          "type": "uint256"
        }
      ],
      "stateMutability": "view",
      "type": "function"
    },
    {
      "inputs": [],
      "name": "INITIAL_MINT",
      "outputs": [
        {
          "internalType": "uint256",
          "name": "",
          "type": "uint256"
        }
      ],
      "stateMutability": "view",
      "type": "function"
    },
    {
      "inputs": [
        {
          "internalType": "address",
          "name": "owner",
          "type": "address"
        },
        {
          "internalType": "address",
          "name": "spender",
          "type": "address"
        }
      ],
      "name": "allowance",
      "outputs": [
        {
          "internalType": "uint256",
          "name": "",
          "type": "uint256"
        }
      ],
      "stateMutability": "view",
      "type": "function"
    },
    {
      "inputs": [
        {
          "internalType": "address",
          "name": "spender",
          "type": "address"
        },
        {
          "internalType": "uint256",
          "name": "value",
          "type": "uint256"
        }
      ],
      "name": "approve",
      "outputs": [
        {
          "internalType": "bool",
          "name": "",
          "type": "bool"
        }
      ],
      "stateMutability": "nonpayable",
      "type": "function"
    },
    {
      "inputs": [
        {
          "internalType": "address",
          "name": "account",
          "type": "address"
        }
      ],
      "name": "balanceOf",
      "outputs": [
        {
          "internalType": "uint256",
          "name": "",
          "type": "uint256"
        }
      ],
      "stateMutability": "view",
      "type": "function"
    },
    {
      "inputs": [
        {
          "internalType": "uint256",
          "name": "amount",
          "type": "uint256"
        }
      ],
      "name": "burn",
      "outputs": [],
      "stateMutability": "nonpayable",
      "type": "function"
    },
    {
      "inputs": [],
      "name": "decimals",
      "outputs": [
        {
          "internalType": "uint8",
          "name": "",
          "type": "uint8"
        }
      ],
      "stateMutability": "view",
      "type": "function"
    },
    {
      "inputs": [
        {
          "internalType": "address",
          "name": "",
          "type": "address"
        }
      ],
      "name": "hasMintedInitial",
      "outputs": [
        {
          "internalType": "bool",
          "name": "",
          "type": "bool"
        }
      ],
      "stateMutability": "view",
      "type": "function"
    },
    {
      "inputs": [
        {
          "internalType": "address",
          "name": "account",
          "type": "address"
        }
      ],
      "name": "hasReceivedInitialMint",
      "outputs": [
        {
          "internalType": "bool",
          "name": "",
          "type": "bool"
        }
      ],
      "stateMutability": "view",
      "type": "function"
    },
    {
      "inputs": [
        {
          "internalType": "address",
          "name": "to",
          "type": "address"
        }
      ],
      "name": "mintInitial",
      "outputs": [],
      "stateMutability": "nonpayable",
      "type": "function"
    },
    {
      "inputs": [],
      "name": "name",
      "outputs": [
        {
          "internalType": "string",
          "name": "",
          "type": "string"
        }
      ],
      "stateMutability": "view",
      "type": "function"
    },
    {
      "inputs": [],
      "name": "owner",
      "outputs": [
        {
          "internalType": "address",
          "name": "",
          "type": "address"
        }
      ],
      "stateMutability": "view",
      "type": "function"
    },
    {
      "inputs": [],
      "name": "registerAddress",
      "outputs": [
        {
          "internalType": "address",
          "name": "",
          "type": "address"
        }
      ],
      "stateMutability": "view",
      "type": "function"
    },
    {
      "inputs": [],
      "name": "renounceOwnership",
      "outputs": [],
      "stateMutability": "nonpayable",
      "type": "function"
    },
    {
      "inputs": [
        {
          "internalType": "address",
          "name": "_registerAddress",
          "type": "address"
        }
      ],
      "name": "setRegisterAddress",
      "outputs": [],
      "stateMutability": "nonpayable",
      "type": "function"
    },
    {
      "inputs": [
        {
          "internalType": "address",
          "name": "_taskEscrowAddress",
          "type": "address"
        }
      ],
      "name": "setTaskEscrowAddress",
      "outputs": [],
      "stateMutability": "nonpayable",
      "type": "function"
    },
    {
      "inputs": [],
      "name": "symbol",
      "outputs": [
        {
          "internalType": "string",
          "name": "",
          "type": "string"
        }
      ],
      "stateMutability": "view",
      "type": "function"
    },
    {
      "inputs": [],
      "name": "taskEscrowAddress",
      "outputs": [
        {
          "internalType": "address",
          "name": "",
          "type": "address"
        }
      ],
      "stateMutability": "view",
      "type": "function"
    },
    {
      "inputs": [],
      "name": "totalSupply",
      "outputs": [
        {
          "internalType": "uint256",
          "name": "",
          "type": "uint256"
        }
      ],
      "stateMutability": "view",
      "type": "function"
    },
    {
      "inputs": [
        {
          "internalType": "address",
          "name": "to",
          "type": "address"
        },
        {
          "internalType": "uint256",
          "name": "value",
          "type": "uint256"
        }
      ],
      "name": "transfer",
      "outputs": [
        {
          "internalType": "bool",
          "name": "",
          "type": "bool"
        }
      ],
      "stateMutability": "nonpayable",
      "type": "function"
    },
    {
      "inputs": [
        {
          "internalType": "address",
          "name": "from",
          "type": "address"
        },
        {
          "internalType": "address",
          "name": "to",
          "type": "address"
        },
        {
          "internalType": "uint256",
          "name": "value",
          "type": "uint256"
        }
      ],
      "name": "transferFrom",
      "outputs": [
        {
          "internalType": "bool",
          "name": "",
          "type": "bool"
        }
      ],
      "stateMutability": "nonpayable",
      "type": "function"
    },
    {
      "inputs": [
        {
          "internalType": "address",
          "name": "newOwner",
          "type": "address"
        }
      ],
      "name": "transferOwnership",
      "outputs": [],
      "stateMutability": "nonpayable",
      "type": "function"
    }
  ],
  "bytecode": "0x60806040523480156200001157600080fd5b50336040518060400160405280600e81526020016d22bb32b922b1b437902a37b5b2b760911b81525060405180604001604052806005815260200164454f43484f60d81b8152508160039081620000699190620001b3565b506004620000788282620001b3565b5050506001600160a01b038116620000aa57604051631e4fbdf760e01b81526000600482015260240160405180910390fd5b620000b581620000bc565b506200027f565b600580546001600160a01b038381166001600160a01b0319831681179093556040519116919082907f8be0079c531659141344cd1fd0a4f28419497f9722a3daafe3b4186f6b6457e090600090a35050565b634e487b7160e01b600052604160045260246000fd5b600181811c908216806200013957607f821691505b6020821081036200015a57634e487b7160e01b600052602260045260246000fd5b50919050565b601f821115620001ae57600081815260208120601f850160051c81016020861015620001895750805b601f850160051c820191505b81811015620001aa5782815560010162000195565b5050505b505050565b81516001600160401b03811115620001cf57620001cf6200010e565b620001e781620001e0845462000124565b8462000160565b602080601f8311600181146200021f5760008415620002065750858301515b600019600386901b1c1916600185901b178555620001aa565b600085815260208120601f198616915b8281101562000250578886015182559484019460019091019084016200022f565b50858210156200026f5787850151600019600388901b60f8161c191681555b5050505050600190811b01905550565b610d5a806200028f6000396000f3fe608060405234801561001057600080fd5b506004361061014d5760003560e01c80638016fbf9116100c3578063a9059cbb1161007c578063a9059cbb146102ec578063bf333f2c146102ff578063ca7df92c14610307578063dd62ed3e14610317578063ec81b48314610350578063f2fde38b1461036257600080fd5b80638016fbf91461025e5780638332602d146102815780638aa7e584146102945780638da5cb5b146102a757806395d89b41146102b8578063a5c26f2b146102c057600080fd5b8063313ce56711610115578063313ce567146101e35780633f3e4d9e146101f257806342966c68146102075780634c6bfde01461021a57806370a082311461022d578063715018a61461025657600080fd5b806306fdde0314610152578063095ea7b31461017057806318160ddd146101935780631832425f146101a557806323b872dd146101d0575b600080fd5b61015a610375565b6040516101679190610b70565b60405180910390f35b61018361017e366004610bda565b610407565b6040519015158152602001610167565b6002545b604051908152602001610167565b6007546101b8906001600160a01b031681565b6040516001600160a01b039091168152602001610167565b6101836101de366004610c04565b610421565b60405160128152602001610167565b610205610200366004610c40565b610445565b005b610205610215366004610c62565b6105bd565b610205610228366004610c40565b610628565b61019761023b366004610c40565b6001600160a01b031660009081526020819052604090205490565b6102056106a3565b61018361026c366004610c40565b60066020526000908152604090205460ff1681565b6008546101b8906001600160a01b031681565b6102056102a2366004610c40565b6106b7565b6005546001600160a01b03166101b8565b61015a610732565b6101836102ce366004610c40565b6001600160a01b031660009081526006602052604090205460ff1690565b6101836102fa366004610bda565b610741565b61019760c881565b61019768056bc75e2d6310000081565b610197610325366004610c7b565b6001600160a01b03918216600090815260016020908152604080832093909416825291909152205490565b6101976a084595161401484a00000081565b610205610370366004610c40565b61074f565b60606003805461038490610cae565b80601f01602080910402602001604051908101604052809291908181526020018280546103b090610cae565b80156103fd5780601f106103d2576101008083540402835291602001916103fd565b820191906000526020600020905b8154815290600101906020018083116103e057829003601f168201915b5050505050905090565b600033610415818585610792565b60019150505b92915050565b60003361042f8582856107a4565b61043a858585610823565b506001949350505050565b6007546001600160a01b0316331461047057604051632d7858e160e11b815260040160405180910390fd5b6001600160a01b03811660009081526006602052604090205460ff16156104aa57604051631bbdf5c560e31b815260040160405180910390fd5b6001600160a01b0381166000908152600660205260408120805460ff191660011790556a084595161401484a0000006104e260025490565b101561053e5760006104f360025490565b610508906a084595161401484a000000610cfe565b905068056bc75e2d63100000811015610521578061052c565b68056bc75e2d631000005b91506105388383610882565b50610576565b506040516000906001600160a01b038316907ff8c4caae2be91e67e28a04a743427353dc70758e1fa006547e99b8c97c19995e908390a25b816001600160a01b03167fbc6c86641e9b7307b3afd12719d721d0894a30aa8bee98f10b252ab91611d951826040516105b191815260200190565b60405180910390a25050565b6008546001600160a01b031633146105e857604051630cd3ef5360e11b815260040160405180910390fd5b6105f233826108bc565b6040518181527fd83c63197e8e676d80ab0122beba9a9d20f3828839e9a1d6fe81d242e9cd7e6e9060200160405180910390a150565b6106306108f2565b6008546001600160a01b03161561065a57604051637b1616c160e11b815260040160405180910390fd5b6001600160a01b0381166106815760405163d92e233d60e01b815260040160405180910390fd5b600880546001600160a01b0319166001600160a01b0392909216919091179055565b6106ab6108f2565b6106b5600061091f565b565b6106bf6108f2565b6007546001600160a01b0316156106e957604051637b1616c160e11b815260040160405180910390fd5b6001600160a01b0381166107105760405163d92e233d60e01b815260040160405180910390fd5b600780546001600160a01b0319166001600160a01b0392909216919091179055565b60606004805461038490610cae565b600033610415818585610823565b6107576108f2565b6001600160a01b03811661078657604051631e4fbdf760e01b8152600060048201526024015b60405180910390fd5b61078f8161091f565b50565b61079f8383836001610971565b505050565b6001600160a01b0383811660009081526001602090815260408083209386168352929052205460001981101561081d578181101561080e57604051637dc7a0d960e11b81526001600160a01b0384166004820152602481018290526044810183905260640161077d565b61081d84848484036000610971565b50505050565b6001600160a01b03831661084d57604051634b637e8f60e11b81526000600482015260240161077d565b6001600160a01b0382166108775760405163ec442f0560e01b81526000600482015260240161077d565b61079f838383610a46565b6001600160a01b0382166108ac5760405163ec442f0560e01b81526000600482015260240161077d565b6108b860008383610a46565b5050565b6001600160a01b0382166108e657604051634b637e8f60e11b81526000600482015260240161077d565b6108b882600083610a46565b6005546001600160a01b031633146106b55760405163118cdaa760e01b815233600482015260240161077d565b600580546001600160a01b038381166001600160a01b0319831681179093556040519116919082907f8be0079c531659141344cd1fd0a4f28419497f9722a3daafe3b4186f6b6457e090600090a35050565b6001600160a01b03841661099b5760405163e602df0560e01b81526000600482015260240161077d565b6001600160a01b0383166109c557604051634a1406b160e11b81526000600482015260240161077d565b6001600160a01b038085166000908152600160209081526040808320938716835292905220829055801561081d57826001600160a01b0316846001600160a01b03167f8c5be1e5ebec7d5bd14f71427d1e84f3dd0314c0f7b2291e5b200ac8c7c3b92584604051610a3891815260200190565b60405180910390a350505050565b6001600160a01b038316610a71578060026000828254610a669190610d11565b90915550610ae39050565b6001600160a01b03831660009081526020819052604090205481811015610ac45760405163391434e360e21b81526001600160a01b0385166004820152602481018290526044810183905260640161077d565b6001600160a01b03841660009081526020819052604090209082900390555b6001600160a01b038216610aff57600280548290039055610b1e565b6001600160a01b03821660009081526020819052604090208054820190555b816001600160a01b0316836001600160a01b03167fddf252ad1be2c89b69c2b068fc378daa952ba7f163c4a11628f55a4df523b3ef83604051610b6391815260200190565b60405180910390a3505050565b600060208083528351808285015260005b81811015610b9d57858101830151858201604001528201610b81565b506000604082860101526040601f19601f8301168501019250505092915050565b80356001600160a01b0381168114610bd557600080fd5b919050565b60008060408385031215610bed57600080fd5b610bf683610bbe565b946020939093013593505050565b600080600060608486031215610c1957600080fd5b610c2284610bbe565b9250610c3060208501610bbe565b9150604084013590509250925092565b600060208284031215610c5257600080fd5b610c5b82610bbe565b9392505050565b600060208284031215610c7457600080fd5b5035919050565b60008060408385031215610c8e57600080fd5b610c9783610bbe565b9150610ca560208401610bbe565b90509250929050565b600181811c90821680610cc257607f821691505b602082108103610ce257634e487b7160e01b600052602260045260246000fd5b50919050565b634e487b7160e01b600052601160045260246000fd5b8181038181111561041b5761041b610ce8565b8082018082111561041b5761041b610ce856fea26469706673582212203d2278d5c7ed6e0d73d718b1d9fa39522bf29d4cec95f5b95b30549a9162dea864736f6c63430008140033",
  "linkReferences": {},
  "deployedLinkReferences": {}
}