{
  "contractName": "RewardContract",
  "abi": [
    {
      "inputs": [
        {
          "internalType": "uint256",
          "name": "_chatFee",
          "type": "uint256"
        }
      ],
      "stateMutability": "nonpayable",
      "type": "constructor"
    },
    {
      "anonymous": false,
      "inputs": [
        {
          "indexed": true,
          "internalType": "address",
          "name": "user",
          "type": "address"
        },
        {
          "indexed": false,
          "internalType": "uint256",
          "name": "amount",
          "type": "uint256"
        },
        {
          "indexed": false,
          "internalType": "bytes32",
          "name": "conversationId",
          "type": "bytes32"
        }
      ],
      "name": "ChatPayment",
      "type": "event"
    },
    {
      "anonymous": false,
      "inputs": [
        {
          "indexed": true,
          "internalType": "uint256",
          "name": "nftId",
          "type": "uint256"
        },
        {
          "indexed": true,
          "internalType": "address",
          "name": "recipient",
          "type": "address"
        },
        {
          "indexed": false,
          "internalType": "uint256",
          "name": "amount",
          "type": "uint256"
        }
      ],
      "name": "RewardDistributed",
      "type": "event"
    },
    {
      "inputs": [],
      "name": "chatFee",
      "outputs": [
        {
          "internalType": "uint256",
          "name": "",
          "type": "uint256"
        }
      ],
      "stateMutability": "view",
      "type": "function",
      "constant": true
    },
    {
      "inputs": [],
      "name": "owner",
      "outputs": [
        {
          "internalType": "address",
          "name": "",
          "type": "address"
        }
      ],
      "stateMutability": "view",
      "type": "function",
      "constant": true
    },
    {
      "stateMutability": "payable",
      "type": "receive",
      "payable": true
    },
    {
      "inputs": [
        {
          "internalType": "bytes32",
          "name": "conversationId",
          "type": "bytes32"
        }
      ],
      "name": "payForChat",
      "outputs": [],
      "stateMutability": "payable",
      "type": "function",
      "payable": true
    },
    {
      "inputs": [
        {
          "components": [
            {
              "internalType": "uint256",
              "name": "nftId",
              "type": "uint256"
            },
            {
              "internalType": "uint256",
              "name": "relevanceWeight",
              "type": "uint256"
            }
          ],
          "internalType": "struct RewardContract.Contribution[]",
          "name": "contributions",
          "type": "tuple[]"
        },
        {
          "internalType": "address[]",
          "name": "recipients",
          "type": "address[]"
        }
      ],
      "name": "distributeRewards",
      "outputs": [],
      "stateMutability": "nonpayable",
      "type": "function"
    },
    {
      "inputs": [],
      "name": "withdraw",
      "outputs": [],
      "stateMutability": "nonpayable",
      "type": "function"
    },
    {
      "inputs": [
        {
          "internalType": "uint256",
          "name": "_newFee",
          "type": "uint256"
        }
      ],
      "name": "setChatFee",
      "outputs": [],
      "stateMutability": "nonpayable",
      "type": "function"
    },
    {
      "inputs": [],
      "name": "getBalance",
      "outputs": [
        {
          "internalType": "uint256",
          "name": "",
          "type": "uint256"
        }
      ],
      "stateMutability": "view",
      "type": "function",
      "constant": true
    }
  ],
  "bytecode": "0x608060405234801561001057600080fd5b50604051610f4f380380610f4f833981810160405281019061003291906100ba565b336000806101000a81548173ffffffffffffffffffffffffffffffffffffffff021916908373ffffffffffffffffffffffffffffffffffffffff16021790555080600181905550506100e7565b600080fd5b6000819050919050565b61009781610084565b81146100a257600080fd5b50565b6000815190506100b48161008e565b92915050565b6000602082840312156100d0576100cf61007f565b5b60006100de848285016100a5565b91505092915050565b610e59806100f66000396000f3fe6080604052600436106100745760003560e01c806356606d791161004e57806356606d79146100eb578063882bd39c146101075780638da5cb5b14610132578063ee4e462d1461015d5761007b565b806312065fe01461008057806338390f31146100ab5780633ccfd60b146100d45761007b565b3661007b57005b600080fd5b34801561008c57600080fd5b50610095610186565b6040516100a29190610770565b60405180910390f35b3480156100b757600080fd5b506100d260048036038101906100cd91906107c1565b61018e565b005b3480156100e057600080fd5b506100e9610226565b005b61010560048036038101906101009190610824565b61031d565b005b34801561011357600080fd5b5061011c6103b5565b6040516101299190610770565b60405180910390f35b34801561013e57600080fd5b506101476103bb565b6040516101549190610892565b60405180910390f35b34801561016957600080fd5b50610184600480360381019061017f9190610968565b6103df565b005b600047905090565b60008054906101000a900473ffffffffffffffffffffffffffffffffffffffff1673ffffffffffffffffffffffffffffffffffffffff163373ffffffffffffffffffffffffffffffffffffffff161461021c576040517f08c379a000000000000000000000000000000000000000000000000000000000815260040161021390610a46565b60405180910390fd5b8060018190555050565b60008054906101000a900473ffffffffffffffffffffffffffffffffffffffff1673ffffffffffffffffffffffffffffffffffffffff163373ffffffffffffffffffffffffffffffffffffffff16146102b4576040517f08c379a00000000000000000000000000000000000000000000000000000000081526004016102ab90610a46565b60405180910390fd5b60008054906101000a900473ffffffffffffffffffffffffffffffffffffffff1673ffffffffffffffffffffffffffffffffffffffff166108fc479081150290604051600060405180830381858888f1935050505015801561031a573d6000803e3d6000fd5b50565b600154341015610362576040517f08c379a000000000000000000000000000000000000000000000000000000000815260040161035990610ab2565b60405180910390fd5b3373ffffffffffffffffffffffffffffffffffffffff167f881ffeba90bf43d319eafe71ca801c5b80c9af7033352d539ce6d779dfbdb3c734836040516103aa929190610ae1565b60405180910390a250565b60015481565b60008054906101000a900473ffffffffffffffffffffffffffffffffffffffff1681565b60008054906101000a900473ffffffffffffffffffffffffffffffffffffffff1673ffffffffffffffffffffffffffffffffffffffff163373ffffffffffffffffffffffffffffffffffffffff161461046d576040517f08c379a000000000000000000000000000000000000000000000000000000000815260040161046490610a46565b60405180910390fd5b8181905084849050146104b5576040517f08c379a00000000000000000000000000000000000000000000000000000000081526004016104ac90610b56565b60405180910390fd5b6001544710156104fa576040517f08c379a00000000000000000000000000000000000000000000000000000000081526004016104f190610bc2565b60405180910390fd5b6000805b858590508110156105465785858281811061051c5761051b610be2565b5b90506040020160200135826105319190610c40565b9150808061053e90610c74565b9150506104fe565b506000811161058a576040517f08c379a000000000000000000000000000000000000000000000000000000000815260040161058190610d08565b60405180910390fd5b60005b8585905081101561074f576000828787848181106105ae576105ad610be2565b5b905060400201602001356001546105c59190610d28565b6105cf9190610d99565b90506000811180156106355750600073ffffffffffffffffffffffffffffffffffffffff1685858481811061060757610606610be2565b5b905060200201602081019061061c9190610df6565b73ffffffffffffffffffffffffffffffffffffffff1614155b1561073b5784848381811061064d5761064c610be2565b5b90506020020160208101906106629190610df6565b73ffffffffffffffffffffffffffffffffffffffff166108fc829081150290604051600060405180830381858888f193505050501580156106a7573d6000803e3d6000fd5b508484838181106106bb576106ba610be2565b5b90506020020160208101906106d09190610df6565b73ffffffffffffffffffffffffffffffffffffffff168787848181106106f9576106f8610be2565b5b905060400201600001357fab7542bafced3da2d8c881cb2dd1de859fac7c20d3650d2902ad389a64e08883836040516107329190610770565b60405180910390a35b50808061074790610c74565b91505061058d565b505050505050565b6000819050919050565b61076a81610757565b82525050565b60006020820190506107856000830184610761565b92915050565b600080fd5b600080fd5b61079e81610757565b81146107a957600080fd5b50565b6000813590506107bb81610795565b92915050565b6000602082840312156107d7576107d661078b565b5b60006107e5848285016107ac565b91505092915050565b6000819050919050565b610801816107ee565b811461080c57600080fd5b50565b60008135905061081e816107f8565b92915050565b60006020828403121561083a5761083961078b565b5b60006108488482850161080f565b91505092915050565b600073ffffffffffffffffffffffffffffffffffffffff82169050919050565b600061087c82610851565b9050919050565b61088c81610871565b82525050565b60006020820190506108a76000830184610883565b92915050565b600080fd5b600080fd5b600080fd5b60008083601f8401126108d2576108d16108ad565b5b8235905067ffffffffffffffff8111156108ef576108ee6108b2565b5b60208301915083604082028301111561090b5761090a6108b7565b5b9250929050565b60008083601f840112610928576109276108ad565b5b8235905067ffffffffffffffff811115610945576109446108b2565b5b602083019150836020820283011115610961576109606108b7565b5b9250929050565b600080600080604085870312156109825761098161078b565b5b600085013567ffffffffffffffff8111156109a05761099f610790565b5b6109ac878288016108bc565b9450945050602085013567ffffffffffffffff8111156109cf576109ce610790565b5b6109db87828801610912565b925092505092959194509250565b600082825260208201905092915050565b7f4e6f74206f776e65720000000000000000000000000000000000000000000000600082015250565b6000610a306009836109e9565b9150610a3b826109fa565b602082019050919050565b60006020820190508181036000830152610a5f81610a23565b9050919050565b7f496e73756666696369656e74207061796d656e74000000000000000000000000600082015250565b6000610a9c6014836109e9565b9150610aa782610a66565b602082019050919050565b60006020820190508181036000830152610acb81610a8f565b9050919050565b610adb816107ee565b82525050565b6000604082019050610af66000830185610761565b610b036020830184610ad2565b9392505050565b7f4172726179206c656e677468206d69736d617463680000000000000000000000600082015250565b6000610b406015836109e9565b9150610b4b82610b0a565b602082019050919050565b60006020820190508181036000830152610b6f81610b33565b9050919050565b7f496e73756666696369656e7420636f6e74726163742062616c616e6365000000600082015250565b6000610bac601d836109e9565b9150610bb782610b76565b602082019050919050565b60006020820190508181036000830152610bdb81610b9f565b9050919050565b7f4e487b7100000000000000000000000000000000000000000000000000000000600052603260045260246000fd5b7f4e487b7100000000000000000000000000000000000000000000000000000000600052601160045260246000fd5b6000610c4b82610757565b9150610c5683610757565b9250828201905080821115610c6e57610c6d610c11565b5b92915050565b6000610c7f82610757565b91507fffffffffffffffffffffffffffffffffffffffffffffffffffffffffffffffff8203610cb157610cb0610c11565b5b600182019050919050565b7f546f74616c20776569676874206973207a65726f000000000000000000000000600082015250565b6000610cf26014836109e9565b9150610cfd82610cbc565b602082019050919050565b60006020820190508181036000830152610d2181610ce5565b9050919050565b6000610d3382610757565b9150610d3e83610757565b9250828202610d4c81610757565b91508282048414831517610d6357610d62610c11565b5b5092915050565b7f4e487b7100000000000000000000000000000000000000000000000000000000600052601260045260246000fd5b6000610da482610757565b9150610daf83610757565b925082610dbf57610dbe610d6a565b5b828204905092915050565b610dd381610871565b8114610dde57600080fd5b50565b600081359050610df081610dca565b92915050565b600060208284031215610e0c57610e0b61078b565b5b6000610e1a84828501610de1565b9150509291505056fea264697066735822122054ca6e55d3787f435577f12c755c29a6b2a4509ec82817120f69f182820fea7b64736f6c63430008130033",
  "immutableReferences": {},
  "source": "//SPDX-License-Identifier: MIT\r\npragma solidity ^0.8.19;\r\n\r\ncontract RewardContract {\r\n    address public owner;\r\n    uint256 public chatFee; // wei\r\n    \r\n    struct Contribution {\r\n        uint256 nftId;\r\n        uint256 relevanceWeight; // 10000.75750\r\n    }\r\n    \r\n    event ChatPayment(address indexed user, uint256 amount, bytes32 conversationId);\r\n    event RewardDistributed(uint256 indexed nftId, address indexed recipient, uint256 amount);\r\n    \r\n    constructor(uint256 _chatFee) {\r\n        owner = msg.sender;\r\n        chatFee = _chatFee; // 0.000001 ETH = 1000000000000 wei\r\n    }\r\n    \r\n    // \r\n    function payForChat(bytes32 conversationId) external payable {\r\n        require(msg.value >= chatFee, \"Insufficient payment\");\r\n        emit ChatPayment(msg.sender, msg.value, conversationId);\r\n    }\r\n    \r\n    // \r\n    function distributeRewards(\r\n        Contribution[] calldata contributions,\r\n        address[] calldata recipients\r\n    ) external onlyOwner {\r\n        require(contributions.length == recipients.length, \"Array length mismatch\");\r\n        require(address(this).balance >= chatFee, \"Insufficient contract balance\");\r\n        \r\n        uint256 totalWeight = 0;\r\n        for (uint i = 0; i < contributions.length; i++) {\r\n            totalWeight += contributions[i].relevanceWeight;\r\n        }\r\n        \r\n        require(totalWeight > 0, \"Total weight is zero\");\r\n        \r\n        for (uint i = 0; i < contributions.length; i++) {\r\n            uint256 share = (chatFee * contributions[i].relevanceWeight) / totalWeight;\r\n            if (share > 0 && recipients[i] != address(0)) {\r\n                payable(recipients[i]).transfer(share);\r\n                emit RewardDistributed(contributions[i].nftId, recipients[i], share);\r\n            }\r\n        }\r\n    }\r\n    \r\n    // ETH\r\n    function withdraw() external onlyOwner {\r\n        payable(owner).transfer(address(this).balance);\r\n    }\r\n    \r\n    // \r\n    function setChatFee(uint256 _newFee) external onlyOwner {\r\n        chatFee = _newFee;\r\n    }\r\n    \r\n    modifier onlyOwner() {\r\n        require(msg.sender == owner, \"Not owner\");\r\n        _;\r\n    }\r\n    \r\n    receive() external payable {}\r\n    \r\n    // \r\n    function getBalance() external view returns (uint256) {\r\n        return address(this).balance;\r\n    }\r\n}",
  "sourcePath": "C:\\Users\\82380\\Desktop\\demo\\TalkToEarn_Solidity\\contracts\\RewardContract.sol",
  "compiler": {
    "name": "solc",
    "version": "0.8.19+commit.7dd6d404.Emscripten.clang"
  },
  "schemaVersion": "3.4.16",
  "updatedAt": "2025-11-24T15:54:01.960Z",
  "networkType": "ethereum",
  "devdoc": {
    "kind": "dev",
    "methods": {},
    "version": 1
  },
  "userdoc": {
    "kind": "user",
    "methods": {},
    "version": 1
  }
}