{
  "contractName": "SimpleNFT",
  "abi": [
    {
      "inputs": [
        {
          "internalType": "string",
          "name": "name_",
          "type": "string"
        },
        {
          "internalType": "string",
          "name": "symbol_",
          "type": "string"
        }
      ],
      "stateMutability": "nonpayable",
      "type": "constructor"
    },
    {
      "anonymous": false,
      "inputs": [
        {
          "indexed": true,
          "internalType": "address",
          "name": "to",
          "type": "address"
        },
        {
          "indexed": true,
          "internalType": "uint256",
          "name": "tokenId",
          "type": "uint256"
        },
        {
          "indexed": false,
          "internalType": "string",
          "name": "uri",
          "type": "string"
        }
      ],
      "name": "Mint",
      "type": "event"
    },
    {
      "anonymous": false,
      "inputs": [
        {
          "indexed": true,
          "internalType": "address",
          "name": "from",
          "type": "address"
        },
        {
          "indexed": true,
          "internalType": "address",
          "name": "to",
          "type": "address"
        },
        {
          "indexed": true,
          "internalType": "uint256",
          "name": "tokenId",
          "type": "uint256"
        }
      ],
      "name": "Transfer",
      "type": "event"
    },
    {
      "inputs": [],
      "name": "name",
      "outputs": [
        {
          "internalType": "string",
          "name": "",
          "type": "string"
        }
      ],
      "stateMutability": "view",
      "type": "function",
      "constant": true
    },
    {
      "inputs": [],
      "name": "symbol",
      "outputs": [
        {
          "internalType": "string",
          "name": "",
          "type": "string"
        }
      ],
      "stateMutability": "view",
      "type": "function",
      "constant": true
    },
    {
      "inputs": [
        {
          "internalType": "address",
          "name": "to",
          "type": "address"
        },
        {
          "internalType": "string",
          "name": "uri",
          "type": "string"
        }
      ],
      "name": "mint",
      "outputs": [
        {
          "internalType": "uint256",
          "name": "",
          "type": "uint256"
        }
      ],
      "stateMutability": "nonpayable",
      "type": "function"
    },
    {
      "inputs": [
        {
          "internalType": "uint256",
          "name": "tokenId",
          "type": "uint256"
        }
      ],
      "name": "tokenURI",
      "outputs": [
        {
          "internalType": "string",
          "name": "",
          "type": "string"
        }
      ],
      "stateMutability": "view",
      "type": "function",
      "constant": true
    },
    {
      "inputs": [
        {
          "internalType": "uint256",
          "name": "tokenId",
          "type": "uint256"
        }
      ],
      "name": "ownerOf",
      "outputs": [
        {
          "internalType": "address",
          "name": "",
          "type": "address"
        }
      ],
      "stateMutability": "view",
      "type": "function",
      "constant": true
    },
    {
      "inputs": [
        {
          "internalType": "address",
          "name": "owner",
          "type": "address"
        }
      ],
      "name": "balanceOf",
      "outputs": [
        {
          "internalType": "uint256",
          "name": "",
          "type": "uint256"
        }
      ],
      "stateMutability": "view",
      "type": "function",
      "constant": true
    },
    {
      "inputs": [],
      "name": "totalSupply",
      "outputs": [
        {
          "internalType": "uint256",
          "name": "",
          "type": "uint256"
        }
      ],
      "stateMutability": "view",
      "type": "function",
      "constant": true
    }
  ],
  "bytecode": "0x608060405260016002553480156200001657600080fd5b50604051620014953803806200149583398181016040528101906200003c9190620001fb565b81600090816200004d9190620004cb565b5080600190816200005f9190620004cb565b505050620005b2565b6000604051905090565b600080fd5b600080fd5b600080fd5b600080fd5b6000601f19601f8301169050919050565b7f4e487b7100000000000000000000000000000000000000000000000000000000600052604160045260246000fd5b620000d18262000086565b810181811067ffffffffffffffff82111715620000f357620000f262000097565b5b80604052505050565b60006200010862000068565b9050620001168282620000c6565b919050565b600067ffffffffffffffff82111562000139576200013862000097565b5b620001448262000086565b9050602081019050919050565b60005b838110156200017157808201518184015260208101905062000154565b60008484015250505050565b6000620001946200018e846200011b565b620000fc565b905082815260208101848484011115620001b357620001b262000081565b5b620001c084828562000151565b509392505050565b600082601f830112620001e057620001df6200007c565b5b8151620001f28482602086016200017d565b91505092915050565b6000806040838503121562000215576200021462000072565b5b600083015167ffffffffffffffff81111562000236576200023562000077565b5b6200024485828601620001c8565b925050602083015167ffffffffffffffff81111562000268576200026762000077565b5b6200027685828601620001c8565b9150509250929050565b600081519050919050565b7f4e487b7100000000000000000000000000000000000000000000000000000000600052602260045260246000fd5b60006002820490506001821680620002d357607f821691505b602082108103620002e957620002e86200028b565b5b50919050565b60008190508160005260206000209050919050565b60006020601f8301049050919050565b600082821b905092915050565b600060088302620003537fffffffffffffffffffffffffffffffffffffffffffffffffffffffffffffffff8262000314565b6200035f868362000314565b95508019841693508086168417925050509392505050565b6000819050919050565b6000819050919050565b6000620003ac620003a6620003a08462000377565b62000381565b62000377565b9050919050565b6000819050919050565b620003c8836200038b565b620003e0620003d782620003b3565b84845462000321565b825550505050565b600090565b620003f7620003e8565b62000404818484620003bd565b505050565b5b818110156200042c5762000420600082620003ed565b6001810190506200040a565b5050565b601f8211156200047b576200044581620002ef565b620004508462000304565b8101602085101562000460578190505b620004786200046f8562000304565b83018262000409565b50505b505050565b600082821c905092915050565b6000620004a06000198460080262000480565b1980831691505092915050565b6000620004bb83836200048d565b9150826002028217905092915050565b620004d68262000280565b67ffffffffffffffff811115620004f257620004f162000097565b5b620004fe8254620002ba565b6200050b82828562000430565b600060209050601f8311600181146200054357600084156200052e578287015190505b6200053a8582620004ad565b865550620005aa565b601f1984166200055386620002ef565b60005b828110156200057d5784890151825560018201915060208501945060208101905062000556565b868310156200059d578489015162000599601f8916826200048d565b8355505b6001600288020188555050505b505050505050565b610ed380620005c26000396000f3fe608060405234801561001057600080fd5b506004361061007d5760003560e01c806370a082311161005b57806370a08231146100ee57806395d89b411461011e578063c87b56dd1461013c578063d0def5211461016c5761007d565b806306fdde031461008257806318160ddd146100a05780636352211e146100be575b600080fd5b61008a61019c565b604051610097919061076b565b60405180910390f35b6100a861022a565b6040516100b591906107a6565b60405180910390f35b6100d860048036038101906100d39190610801565b610240565b6040516100e5919061086f565b60405180910390f35b610108600480360381019061010391906108b6565b61031e565b60405161011591906107a6565b60405180910390f35b610126610367565b604051610133919061076b565b60405180910390f35b61015660048036038101906101519190610801565b6103f5565b604051610163919061076b565b60405180910390f35b61018660048036038101906101819190610a18565b61053c565b60405161019391906107a6565b60405180910390f35b600080546101a990610aa3565b80601f01602080910402602001604051908101604052809291908181526020018280546101d590610aa3565b80156102225780601f106101f757610100808354040283529160200191610222565b820191906000526020600020905b81548152906001019060200180831161020557829003601f168201915b505050505081565b6000600160025461023b9190610b03565b905090565b60008073ffffffffffffffffffffffffffffffffffffffff166003600084815260200190815260200160002060009054906101000a900473ffffffffffffffffffffffffffffffffffffffff1673ffffffffffffffffffffffffffffffffffffffff16036102e3576040517f08c379a00000000000000000000000000000000000000000000000000000000081526004016102da90610b83565b60405180910390fd5b6003600083815260200190815260200160002060009054906101000a900473ffffffffffffffffffffffffffffffffffffffff169050919050565b6000600460008373ffffffffffffffffffffffffffffffffffffffff1673ffffffffffffffffffffffffffffffffffffffff168152602001908152602001600020549050919050565b6001805461037490610aa3565b80601f01602080910402602001604051908101604052809291908181526020018280546103a090610aa3565b80156103ed5780601f106103c2576101008083540402835291602001916103ed565b820191906000526020600020905b8154815290600101906020018083116103d057829003601f168201915b505050505081565b6060600073ffffffffffffffffffffffffffffffffffffffff166003600084815260200190815260200160002060009054906101000a900473ffffffffffffffffffffffffffffffffffffffff1673ffffffffffffffffffffffffffffffffffffffff1603610499576040517f08c379a000000000000000000000000000000000000000000000000000000000815260040161049090610b83565b60405180910390fd5b6005600083815260200190815260200160002080546104b790610aa3565b80601f01602080910402602001604051908101604052809291908181526020018280546104e390610aa3565b80156105305780601f1061050557610100808354040283529160200191610530565b820191906000526020600020905b81548152906001019060200180831161051357829003601f168201915b50505050509050919050565b60008060025490506002600081548092919061055790610ba3565b9190505550836003600083815260200190815260200160002060006101000a81548173ffffffffffffffffffffffffffffffffffffffff021916908373ffffffffffffffffffffffffffffffffffffffff1602179055506001600460008673ffffffffffffffffffffffffffffffffffffffff1673ffffffffffffffffffffffffffffffffffffffff16815260200190815260200160002060008282546105fe9190610beb565b92505081905550826005600083815260200190815260200160002090816106259190610dcb565b50808473ffffffffffffffffffffffffffffffffffffffff16600073ffffffffffffffffffffffffffffffffffffffff167fddf252ad1be2c89b69c2b068fc378daa952ba7f163c4a11628f55a4df523b3ef60405160405180910390a4808473ffffffffffffffffffffffffffffffffffffffff167f85a66b9141978db9980f7e0ce3b468cebf4f7999f32b23091c5c03e798b1ba7a856040516106c9919061076b565b60405180910390a38091505092915050565b600081519050919050565b600082825260208201905092915050565b60005b838110156107155780820151818401526020810190506106fa565b60008484015250505050565b6000601f19601f8301169050919050565b600061073d826106db565b61074781856106e6565b93506107578185602086016106f7565b61076081610721565b840191505092915050565b600060208201905081810360008301526107858184610732565b905092915050565b6000819050919050565b6107a08161078d565b82525050565b60006020820190506107bb6000830184610797565b92915050565b6000604051905090565b600080fd5b600080fd5b6107de8161078d565b81146107e957600080fd5b50565b6000813590506107fb816107d5565b92915050565b600060208284031215610817576108166107cb565b5b6000610825848285016107ec565b91505092915050565b600073ffffffffffffffffffffffffffffffffffffffff82169050919050565b60006108598261082e565b9050919050565b6108698161084e565b82525050565b60006020820190506108846000830184610860565b92915050565b6108938161084e565b811461089e57600080fd5b50565b6000813590506108b08161088a565b92915050565b6000602082840312156108cc576108cb6107cb565b5b60006108da848285016108a1565b91505092915050565b600080fd5b600080fd5b7f4e487b7100000000000000000000000000000000000000000000000000000000600052604160045260246000fd5b61092582610721565b810181811067ffffffffffffffff82111715610944576109436108ed565b5b80604052505050565b60006109576107c1565b9050610963828261091c565b919050565b600067ffffffffffffffff821115610983576109826108ed565b5b61098c82610721565b9050602081019050919050565b82818337600083830152505050565b60006109bb6109b684610968565b61094d565b9050828152602081018484840111156109d7576109d66108e8565b5b6109e2848285610999565b509392505050565b600082601f8301126109ff576109fe6108e3565b5b8135610a0f8482602086016109a8565b91505092915050565b60008060408385031215610a2f57610a2e6107cb565b5b6000610a3d858286016108a1565b925050602083013567ffffffffffffffff811115610a5e57610a5d6107d0565b5b610a6a858286016109ea565b9150509250929050565b7f4e487b7100000000000000000000000000000000000000000000000000000000600052602260045260246000fd5b60006002820490506001821680610abb57607f821691505b602082108103610ace57610acd610a74565b5b50919050565b7f4e487b7100000000000000000000000000000000000000000000000000000000600052601160045260246000fd5b6000610b0e8261078d565b9150610b198361078d565b9250828203905081811115610b3157610b30610ad4565b5b92915050565b7f546f6b656e20646f65736e277420657869737400000000000000000000000000600082015250565b6000610b6d6013836106e6565b9150610b7882610b37565b602082019050919050565b60006020820190508181036000830152610b9c81610b60565b9050919050565b6000610bae8261078d565b91507fffffffffffffffffffffffffffffffffffffffffffffffffffffffffffffffff8203610be057610bdf610ad4565b5b600182019050919050565b6000610bf68261078d565b9150610c018361078d565b9250828201905080821115610c1957610c18610ad4565b5b92915050565b60008190508160005260206000209050919050565b60006020601f8301049050919050565b600082821b905092915050565b600060088302610c817fffffffffffffffffffffffffffffffffffffffffffffffffffffffffffffffff82610c44565b610c8b8683610c44565b95508019841693508086168417925050509392505050565b6000819050919050565b6000610cc8610cc3610cbe8461078d565b610ca3565b61078d565b9050919050565b6000819050919050565b610ce283610cad565b610cf6610cee82610ccf565b848454610c51565b825550505050565b600090565b610d0b610cfe565b610d16818484610cd9565b505050565b5b81811015610d3a57610d2f600082610d03565b600181019050610d1c565b5050565b601f821115610d7f57610d5081610c1f565b610d5984610c34565b81016020851015610d68578190505b610d7c610d7485610c34565b830182610d1b565b50505b505050565b600082821c905092915050565b6000610da260001984600802610d84565b1980831691505092915050565b6000610dbb8383610d91565b9150826002028217905092915050565b610dd4826106db565b67ffffffffffffffff811115610ded57610dec6108ed565b5b610df78254610aa3565b610e02828285610d3e565b600060209050601f831160018114610e355760008415610e23578287015190505b610e2d8582610daf565b865550610e95565b601f198416610e4386610c1f565b60005b82811015610e6b57848901518255600182019150602085019450602081019050610e46565b86831015610e885784890151610e84601f891682610d91565b8355505b6001600288020188555050505b50505050505056fea2646970667358221220f3315fd46ccbd61e1eac3995468c4d2b3f64415b55e9344662b4b34bf93f704a64736f6c63430008130033",
  "immutableReferences": {},
  "source": "//SPDX-License-Identifier: MIT\r\npragma solidity ^0.8.19;\r\n\r\ncontract SimpleNFT {\r\n    string public name;\r\n    string public symbol;\r\n    uint256 private _tokenIdCounter = 1;\r\n    \r\n    mapping(uint256 => address) private _owners;\r\n    mapping(address => uint256) private _balances;\r\n    mapping(uint256 => string) private _tokenURIs;\r\n    \r\n    event Transfer(address indexed from, address indexed to, uint256 indexed tokenId);\r\n    event Mint(address indexed to, uint256 indexed tokenId, string uri);\r\n    \r\n    constructor(string memory name_, string memory symbol_) {\r\n        name = name_;\r\n        symbol = symbol_;\r\n    }\r\n    \r\n    function mint(address to, string memory uri) public returns (uint256) {\r\n        uint256 tokenId = _tokenIdCounter;\r\n        _tokenIdCounter++;\r\n        \r\n        _owners[tokenId] = to;\r\n        _balances[to] += 1;\r\n        _tokenURIs[tokenId] = uri;\r\n        \r\n        emit Transfer(address(0), to, tokenId);\r\n        emit Mint(to, tokenId, uri);\r\n        \r\n        return tokenId;\r\n    }\r\n    \r\n    function tokenURI(uint256 tokenId) public view returns (string memory) {\r\n        require(_owners[tokenId] != address(0), \"Token doesn't exist\");\r\n        return _tokenURIs[tokenId];\r\n    }\r\n    \r\n    function ownerOf(uint256 tokenId) public view returns (address) {\r\n        require(_owners[tokenId] != address(0), \"Token doesn't exist\");\r\n        return _owners[tokenId];\r\n    }\r\n    \r\n    function balanceOf(address owner) public view returns (uint256) {\r\n        return _balances[owner];\r\n    }\r\n    \r\n    function totalSupply() public view returns (uint256) {\r\n        return _tokenIdCounter - 1;\r\n    }\r\n}",
  "sourcePath": "C:\\Users\\82380\\Desktop\\demo\\TalkToEarn_Solidity\\contracts\\NFTContract.sol",
  "compiler": {
    "name": "solc",
    "version": "0.8.19+commit.7dd6d404.Emscripten.clang"
  },
  "schemaVersion": "3.4.16",
  "updatedAt": "2025-11-24T15:54:01.938Z",
  "networkType": "ethereum",
  "devdoc": {
    "kind": "dev",
    "methods": {},
    "version": 1
  },
  "userdoc": {
    "kind": "user",
    "methods": {},
    "version": 1
  }
}